:020000040800F2
:10000000E01B002045010008792500087B25000839
:1000100085250008892500088D25000800000000BE
:100020000000000000000000000000009125000812
:10003000932500080000000095250008972500087A
:100040005F0100085F0100085F0100085F01000810
:100050005F0100085F0100085F0100085F01000800
:100060005F0100085F0100085F0100085F010008F0
:100070005F01000899250008A12500085F0100081C
:100080005F0100085F0100085F0100085F010008D0
:100090005F0100085F0100085F0100085F010008C0
:1000A0005F010008173C00085F0100085F010008BD
:1000B0005F01000843350008773400085F0100083D
:1000C0005F0100085F0100085F0100085F01000890
:1000D0005F010008174000084F4100085F01000859
:1000E0005F0100085F0100085F0100085F01000870
:1000F0005F0100085F0100085F0100085F01000860
:100100005F0100085F0100085F0100085F0100084F
:100110005F0100085F0100085F0100085F0100083F
:100120005F0100085F0100085F0100085F0100082F
:10013000DFF80CD006F08CFC00480047ED230008E7
:10014000E01B00200648804706480047FEE7FEE720
:10015000FEE7FEE7FEE7FEE7FEE7FEE7FEE7FEE777
:1001600047020008310100080CB500200190009002
:100170006C48006840F480306A49086000BF6948F4
:10018000006800F4003000900198401C0190009835
:1001900018B90198B0F5A06FF1D16248006800F479
:1001A000003010B10120009001E000200090009884
:1001B000012843D15C48006840F010005A490860AB
:1001C0000846006820F0030008600846006840F018
:1001D0000200086053484068524948600846406839
:1001E00048600846406840F48060486008464068BF
:1001F00020F47C1048600846406840F4E8104860ED
:100200000846006840F08070086000BF45480068FC
:1002100000F000700028F9D04248406820F0030048
:10022000404948600846406840F00200486000BF0E
:100230003C48406800F00C000828F9D10CBD10B50E
:10024000FFF792FF10BD10B53648006840F001007E
:1002500034490860084640683449084031494860DC
:1002600008460068324908402E4908600846006880
:1002700020F4802008600846406820F4FE004860B2
:100280004FF41F008860FFF7DAFF4FF00060294944
:10029000086010BD10B5002100200022214B5B68D2
:1002A00003F00C0121B1042906D0082928D107E068
:1002B000214B224C236027E01F4B204C236023E07E
:1002C000184B5B6803F47010164B5B6803F48032C4
:1002D000022303EB904022B9194B4343174C236090
:1002E0000DE0104B5B6803F4003323B1144B434320
:1002F000124C236003E0104B4343104C236003E097
:100300000D4B0E4C236000BF00BF064B5B68C3F370
:1003100003130C4CE15C094B1B68CB40074C23607A
:1003200010BD000000100240002002400000FFF855
:10033000FFFFF6FE08ED00E000127A00000000204A
:1003400000093D000400002031490143314A116099
:10035000704770B5002100230F22C47804B32D4CE0
:10036000246804F4E064C4F5E064210AC1F10403E4
:10037000CA40447804FA03F1847814402143090107
:10038000254C0678A155047804F01F050124AC40E3
:1003900005786D11AD0005F1E025C5F8004109E0D3
:1003A000047804F01F050124AC401C4D067876113A
:1003B00045F8264070BD1A4A0A400243154B1B1FE0
:1003C0001A60704739B1134A121D12680243114B6B
:1003D0001B1D1A6006E00F4A121D126882430D4B66
:1003E0001B1D1A607047042808D14FF0E0210969ED
:1003F00041F004014FF0E022116107E04FF0E021ED
:10040000096921F004014FF0E022116170470000FA
:100410000000FA050CED00E000E400E080E100E0FF
:1004200080FFFF1F10B50446FA48844208D101211D
:10043000401500F07FFE0021601500F07BFE17E004
:10044000F548844208D10121001500F073FE002117
:10045000201500F06FFE0BE0F048844208D1012126
:10046000C80300F067FE00214FF4004000F062FE78
:1004700010BD30B50246002000235068E84C2040F3
:100480000D790C6844EA0524204350609068E54CDF
:100490002040D1E902542C434D7944EA45042043DD
:1004A0009060D06A20F470000C7C641EE4B2234398
:1004B00040EA0350D06230BD0021016001714171FA
:1004C0008160C16001210174704721B1826842F0EE
:1004D0000102826003E0826822F0010282607047BC
:1004E00021B1826842F48072826003E0826822F463
:1004F00080728260704710B50023CBB21AB1446895
:100500001C43446002E044689C43446010BD816821
:1005100041F0080181607047014600208A6802F0BE
:1005200008020AB1012000E000207047816841F014
:10053000040181607047014600208A6802F00402CD
:100540000AB1012000E00020704721B1826842F426
:10055000A002826003E0826822F4A00282607047F9
:10056000014600208A6802F480020AB1012000E0FE
:100570000020704710B50A4600210023416821F48D
:100580006041531E41EA4331416010BD21B14268D0
:1005900042F40062426003E0426822F4006242607A
:1005A0007047F0B504460D4600200021092D11DDED
:1005B000E068A5F10A0606EB4607072606FA07F1EA
:1005C0008843A5F10A0606EB460603FA06F108433E
:1005D000E0600CE0206905EB4507072606FA07F105
:1005E000884305EB450603FA06F108432061072A14
:1005F0000FDA606B561E06EB86071F2606FA07F118
:100600008843561E06EB860605FA06F1084360632A
:1006100022E00D2A0FDA206BD61F06EB86071F2675
:1006200006FA07F18843D61F06EB860605FA06F19F
:100630000843206310E0E06AA2F10D0606EB86078E
:100640001F2606FA07F18843A2F10D0606EB86067F
:1006500005FA06F10843E062F0BD21B1826842F478
:100660008012826003E0826822F480128260704708
:100670000146C86C80B2704766484C3000687047CD
:1006800021B1426842F48062426003E0426822F491
:1006900080624260704721B1426842F480524260F9
:1006A00003E0426822F48052426070470A4600210B
:1006B000816821F4E04111438160704721B1826873
:1006C00042F40042826003E0826822F400428260C9
:1006D000704721B1826842F40212826003E08268AE
:1006E00022F4021282607047014600208A6802F4F8
:1006F00000120AB1012000E000207047F0B5044666
:100700001546002000220026092911DDE068A1F12C
:100710000A0707EB470C072707FA0CF29043A1F1F1
:100720000A0707EB470703FA07F21043E0600CE003
:10073000206901EB410C072707FA0CF2904301EB0B
:10074000410703FA07F210432061A06BC0F3015682
:10075000EF1C06F1010CA7EB0C0707EB870C1F271A
:1007600007FA0CF29043EF1C06F1010CA7EB0C0703
:1007700007EB870701FA07F21043A063F0BD10B53D
:100780000A4600210023816B21F44011531E41EAE7
:100790000351816310BD08B5002300930090009BB6
:1007A0000B440093009B1A6008BD08B50246002068
:1007B0000090009201F12800009B184400900098DE
:1007C000006880B208BD0A4600214168164B1940F6
:1007D0001143416070474162826270470A460021BE
:1007E000416821F01F0111434160704740B1094940
:1007F0000831096841F40001064A0832116007E037
:1008000004490831096821F40001024A08321160E4
:10081000704700000024014000280140003C0140D6
:10082000FFFEF0FFFDF7F1FFFFFD3FFF0246002056
:1008300013680B400BB1012000E000207047CA4351
:100840000260704770B502460020002300240B129E
:100850005568CEB205EA060415681D4015B10CB105
:10086000012000E0002070BD00220A12D343036083
:100870007047000001684FF6FE72114001600021D0
:10088000016041608160C1608D49884208D18C4916
:100890000839496841F00F01894A083A51608AE0F5
:1008A00087491431884208D185490839496841F09F
:1008B000F001834A083A51607DE08149283188423D
:1008C00008D17F490839496841F470617C4A083A87
:1008D000516070E07A493C31884208D17849083942
:1008E000496841F47041764A083A516063E07449BE
:1008F0005031884208D172490839496841F4702161
:100900006F4A083A516056E06D496431884208D117
:100910006B490839496841F47001694A083A5160E5
:1009200049E067497831884208D165490839496802
:1009300041F07061624A083A51603CE06149884286
:1009400006D1011F096841F00F01021F116032E05A
:100950005C491431884208D15A49091F096841F09D
:10096000F001584A121F116025E05649283188428B
:1009700008D15449091F096841F47061514A121F96
:10098000116018E04F493C31884208D14D49091F98
:10099000096841F470414B4A121F11600BE049494C
:1009A0005031884207D14749091F096841F4702135
:1009B000444A121F1160704710B50022026847F6C2
:1009C000F0739A430C6A8B6823430C6923434C6988
:1009D00023438C692343CC6923434C6A23438C6AA9
:1009E00023431A430260CB6843600B6883604B6803
:1009F000C36010BD0021016041608160C160016180
:100A000041618161C161016241628162704721B1CE
:100A1000026842F00102026004E002684FF6FE73D1
:100A20001A40026070471AB103680B43036002E08A
:100A300003688B4303607047416070470146486814
:100A400080B2704701460020002201F080531BB1A4
:100A50001C4B083B1A6802E0194B083B1A6802EA73
:100A600001030BB1012000E00020704700F080512D
:100A700019B11449091F086002E01149083948609A
:100A8000704701460020002201F080531BB10D4B3E
:100A9000083B1A6802E00A4B083B1A6802EA0103A5
:100AA0000BB1012000E00020704700F0805119B127
:100AB0000449091F086002E001490839486070478D
:100AC000080002400804024010B50446CC488442A5
:100AD00008D10121042000F02DFB0021042000F0AA
:100AE00029FB46E0C748844208D10121082000F0D4
:100AF00021FB0021082000F01DFB3AE0C24884429F
:100B000008D10121102000F015FB0021102000F079
:100B100011FB2EE0BD48844208D10121202000F0C5
:100B200009FB0021202000F005FB22E0B8488442A8
:100B300008D10121402000F0FDFA0021402000F002
:100B4000F9FA16E0B348844208D10121802000F070
:100B5000F1FA0021802000F0EDFA0AE0AE4884426C
:100B600007D10121801500F0E5FA0021A01500F061
:100B7000E1FA10BD10B50121084600F0DBFA0021B2
:100B8000012000F0D7FA10BD2DE9F0410246002502
:100B90000026002000230024002791F803C00CF059
:100BA0000F0591F803C00CF0100CBCF1000F03D03E
:100BB00091F802C04CEA050591F800C0BCF1000FA5
:100BC00031D0146800202BE04FF0010C0CFA00F338
:100BD000B1F800C00CEA03069E4220D183004FF01A
:100BE0000F0C0CFA03F7BC4305FA03FC4CEA0404AF
:100BF00091F803C0BCF1280F06D14FF0010C0CFA9C
:100C000000FCC2F814C00AE091F803C0BCF1480F20
:100C100005D14FF0010C0CFA00FCC2F810C0401CCA
:100C20000828D1D31460B1F800C0BCF1FF0F34DD47
:100C3000546800202EE000F1080C4FF0010808FA7B
:100C40000CF3B1F800C00CEA03069E4221D18300E8
:100C50004FF00F0C0CFA03F7BC4305FA03FC4CEA07
:100C6000040491F803C0BCF1280F05D100F1080C71
:100C700008FA0CF8C2F8148091F803C0BCF1480FD0
:100C800007D100F1080C4FF0010808FA0CF8C2F87F
:100C90001080401C0828CED35460BDE8F0814FF688
:100CA000FF710180022181700421C17070470246EA
:100CB000002093680B400BB1012000E0002070473A
:100CC0000146886880B2704702460020D3680B4016
:100CD0000BB1012000E0002070470146C86880B2D7
:100CE000704701617047416170470AB1016100E0DE
:100CF00041617047C16070474FF480320A4382619E
:100D00008161826182698269704702460020434B9B
:100D100018684FF68073184040EA021008433F4BB2
:100D2000186070473E49C8617047F0B50A46002315
:100D300000240021002500F00046B6F1004F02D14A
:100D4000364EF16901E0354E7168C0F3034583B258
:100D500000F44016B6F5401F08D121F070612F4E07
:100D6000766826F070662D4F7E6012E000F48016E3
:100D7000B6F5801F06D1032606FA05F4A14341F01B
:100D8000706106E0460D360103FA06F6B14341F004
:100D9000706122B1460D360103FA06F6314300F0C8
:100DA0000046B6F1004F02D11C4EF16101E01B4E2E
:100DB0007160F0BD30B500228B071C0F0F2303FAC2
:100DC00004F2164B08338C1053F824309343134C21
:100DD00008348D1044F8253023468C1053F8243005
:100DE0008C07240F00FA04F423430C4C08348D10B4
:100DF00044F8253030BD0A49DC31086070470000F6
:100E000000080140000C01400010014000140140A6
:100E100000180140001C014000200140000001407A
:100E200000002042DF48006840F00100DD49086012
:100E300008464068DC490840DA49486008460068CE
:100E4000DA490840D74908600846006820F4802045
:100E500008600846406820F4FE0048604FF41F0018
:100E600088607047CF49096821F48031CD4A11600C
:100E70001146096821F480211160B0F5803F03D04C
:100E8000B0F5802F0ED106E0C649096841F48031E3
:100E9000C44A116007E0C349096841F4A021C14A6E
:100EA000116000E000BF00BF704710B5014600228E
:100EB000002300204A11012A02D1BA4C236806E01F
:100EC000022A02D1B74C236A01E0B64C636A01F0F2
:100ED0001F02012494401C400CB1012000E00020BE
:100EE00010BD38B5002000900024002500BF31203F
:100EF000FFF7DBFF05460098401C00900098B0F516
:100F0000A06F01D0002DF2D03120FFF7CEFF08B145
:100F1000012400E00024204638BD01460020A14AFB
:100F2000106820F0F80040EAC10010607047A04946
:100F300008607047024600209A4B586820F47C10E5
:100F400042EA01031843974B586070479849086676
:100F5000704701460020934A506820F00300084380
:100F6000506070478F48406800F00C0070470146A1
:100F700000208C4A506820F0F00008435060704711
:100F800001460020874A506820F4E0600843506022
:100F9000704701460020834A506820F4605040EAC0
:100FA000C1005060704729B17E4A527A02437D4B9E
:100FB0005A7204E07B4A527A82437A4B5A727047E3
:100FC0007B49D8310860704701460020754A506857
:100FD00020F440400843506070470021714A20329D
:100FE0001170704A82F82010012802D004280AD11A
:100FF00004E001216B4A2032117005E00521694AA5
:101000002032117000E000BF00BF704769490860DE
:1010100070476449096A0143624A11627047654931
:1010200044390860704730B50021002200240023B5
:101030005C4D6D6805F00C0121B1042905D008292B
:1010400023D105E05C4D056022E05B4D05601FE0AB
:10105000544D6D6805F47012524D6D6805F480347E
:10106000022505EB92421CB9544D554305600BE037
:101070004C4D6D6805F400351DB1504D554305606C
:1010800002E04D4D5543056002E04B4D056000BF49
:1010900000BF444D6D6805F0F0010909484D6B5CD7
:1010A0000568DD4045603F4D6D6805F4E061090A63
:1010B000434D6B5C4568DD4085603A4D6D6805F4D5
:1010C0006051C90A3E4D6B5C4568DD40C560354DD9
:1010D0006D6805F44041890B3A4D6B5CC568B5FB02
:1010E000F3F5056130BD29B12E4A526902432D4BFB
:1010F0005A6104E02B4A526982432A4B5A61704775
:1011000029B1284A92690243264B9A6104E0254A94
:1011100092698243234B9A61704729B1214AD2696F
:101120000243204BDA6104E01E4AD26982431D4B20
:10113000DA61704729B11B4AD2680243194BDA6061
:1011400004E0184AD2688243164BDA60704729B12E
:10115000144A12690243134B1A6104E0114A1269DE
:101160008243104B1A61704712494039086070473A
:101170000F49C86470470B49C87170470948406AF5
:1011800040F0807007494862704701460020054AD8
:1011900092680A400AB1012000E00020704701492E
:1011A00088727047001002400000FFF8FFFFF6FE53
:1011B000000042428004424200127A0000093D00D1
:1011C000140000202400002010B50446FE4884428C
:1011D00008D10121C014FFF7ADFF0021E014FFF793
:1011E000A9FFC4E0B4F1804F08D101210846FFF700
:1011F000AEFF00210120FFF7AAFFB8E0F3488442C8
:1012000008D101210220FFF7A2FF00210220FFF7F1
:101210009EFFACE0EE48844208D101210420FFF794
:1012200096FF00210420FFF792FFA0E0E9488442E6
:1012300008D101210820FFF78AFF00210820FFF7CD
:1012400086FF94E0E448844208D101211020FFF792
:101250007EFF00211020FFF77AFF88E0DF488442FC
:1012600008D101212020FFF772FF00212020FFF785
:101270006EFF7CE0DA48844208D101214014FFF778
:1012800059FF00216014FFF755FF70E0D5488442F4
:1012900009D10121C804FFF74DFF00214FF40020C0
:1012A000FFF748FF63E0D048844209D101210805D7
:1012B000FFF740FF00214FF48010FFF73BFF56E09F
:1012C000CA48844209D101214805FFF733FF0021B4
:1012D0004FF40010FFF72EFF49E0C548844208D1C3
:1012E00001214020FFF733FF00214020FFF72FFFAF
:1012F0003DE0C048844208D101218020FFF727FF4C
:1013000000218020FFF723FF31E0BB48844208D151
:1013100001218015FFF71BFF0021A015FFF717FF24
:1013200025E0B648844209D101210804FFF702FFF5
:1013300000214FF48030FFF7FDFE18E0B0488442F2
:1013400009D101214804FFF7F5FE00214FF40030D8
:10135000FFF7F0FE0BE0AB48844208D1012188047E
:10136000FFF7E8FE00214FF48020FFF7E3FE10BDF9
:1013700000220288944B98420ED0994B98420BD091
:10138000B0F1804F08D0914B984205D0904B9842D5
:1013900002D0904B984204D14FF68F731A404B887D
:1013A0001A438D4B984207D08C4B984204D04FF68D
:1013B000FF431A40CB881A4302808B8883850B88B1
:1013C0000385814B98420BD0854B984208D08B4BBC
:1013D000984205D08A4B984202D08A4B984201D15C
:1013E0000B7A038601238382704770B500240022A4
:1013F0000023058C4FF6FE7635400584028C8388E9
:10140000048B4FF68F752C40B51E2C400D882C4355
:10141000751E2A400D892A434D882A436A4DA842E9
:101420000BD06F4DA84208D0744DA84205D0744D22
:10143000A84202D0734DA84213D14FF6F7752A4047
:101440004D892A434FF6FB752A408D882A434FF673
:10145000FF652B404FF6FF552B408D892B43CD89DF
:101460002B4383800483CD888586028470BD70B54C
:10147000002400220023058C4FF6EF7635400584CA
:10148000028C8388048B48F6FF752C404FF6FF458D
:101490002C400D884FF6FF7606EA05252C434FF6C3
:1014A000DF752A400D8906EA05152A434D8806EAAC
:1014B00005152A43444DA84202D0494DA8421DD1EA
:1014C0004FF67F752A404D894FF6FF7606EA0515DF
:1014D0002A434FF6BF752A408D8806EA05152A4330
:1014E0004FF6FF352B404FF2FF752B408D8906EAF2
:1014F00085052B43CD8906EA85052B43838004832C
:10150000CD880587028470BD70B5002400220023B9
:10151000058C4FF6FF6635400584028C8388848BEA
:101520004FF68F752C404FF6FC752C400D882C43E0
:101530004FF6FF552A400D894FF6FF7606EA05253E
:101540002A434D8806EA05252A431F4DA84202D0AA
:10155000234DA8421DD14FF2FF752A404D894FF609
:10156000FF7606EA05252A434FF6FF352A408D8887
:1015700006EA05252A434EF6FF752B404DF6FF750A
:101580002B408D8906EA05152B43CD8906EA051502
:101590002B4383808483CD888587028470BD70B59A
:1015A000002200230024058C4EF6FF76354005848A
:1015B000038C8488828B48F6FF752A404FF6FF45DE
:1015C0002A400D8820E00000002C0140000400406B
:1015D00000080040000C00400010004000140040D3
:1015E00000340140004C01400050014000540140D3
:1015F00000180040001C0040002000400040014056
:1016000000440140004801404FF6FF7606EA0525F8
:101610002A434DF6FF752B400D8906EA05352B430D
:101620004D8806EA05352B43FA4DA84202D0FA4D03
:10163000A84208D14BF6FF752C408D894FF6FF76F6
:1016400006EA85152C4384808283CD88A0F840501B
:10165000038470BD828B4FF2FF331A408283828BEA
:101660004FF6FF7303EA01231A4382837047F0B5F4
:101670000C461546002200210026078C4EF6FF7C02
:1016800007EA0C070784828B018C4FF6FF7707EA85
:10169000043640F6FF473A404FF6FF7707EA052742
:1016A0003A434FF6FF7707EA03373A43D94FB84238
:1016B0000ED0D94FB8420BD0B0F1804F08D0D74FE1
:1016C000B84205D0D64FB84202D0D64FB84206D164
:1016D0004DF6FF77394046F48057394305E047F629
:1016E000FF57394044F48057394382830184F0BD69
:1016F000828B4FF6F3731A408283828B0A43828374
:101700007047F0B50C461546002200210026078CD4
:101710004FF6FF6C07EA0C070784828B018C4FF6AB
:10172000FF7707EA04264FF60C773A404FF6FF772B
:1017300007EA03172F433A43B64FB8420ED0B64FCD
:10174000B8420BD0B0F1804F08D0B44FB84205D0AA
:10175000B34FB84202D0B34FB84206D14FF6FF574D
:10176000394046F48077394305E04FF2FF5739405E
:1017700044F48077394382830184F0BD028B4FF2B9
:10178000FF331A400283028B4FF6FF7303EA0123F3
:101790001A4302837047F0B50C461546002200211B
:1017A0000026078C4FF6EF7C07EA0C070784028BB4
:1017B000018C4FF6FF7707EA041640F6FF473A40E0
:1017C0004FF6FF7707EA03373A434FF6FF7707EA0A
:1017D00005273A438F4FB8420ED08F4FB8420BD0F7
:1017E000B0F1804F08D08D4FB84205D08C4FB84231
:1017F00002D08C4FB84206D14FF6DF77394046F021
:101800001007394305E04FF65F77394044F0100781
:10181000394302830184F0BD028B4FF6F3731A4003
:101820000283028B0A4302837047F0B50C461546CB
:1018300000220021068C4FF6FE773E400684028B84
:10184000018C4FF60C7632407E1C06EA03162E43BE
:101850003243704EB0420ED06F4EB0420BD0B0F15A
:10186000804F08D06D4EB04205D06D4EB04202D0D0
:101870006C4EB04206D14FF6FD76314044F0010681
:10188000314305E04FF6F576314044F0010631432F
:1018900002830184F0BD70B505460C465D48854263
:1018A0000ED05D4885420BD0B5F1804F08D05B4823
:1018B000854205D05A48854202D05A48854200D117
:1018C00000E000BF208850B92389A288618828469B
:1018D000FFF7ABFFE1882846FFF79EFF25E0208851
:1018E00004280AD12389A28861882846FFF753FF7C
:1018F000E1882846FFF742FF17E0208808280AD130
:101900002389A28861882846FFF7FBFEE1882846E4
:10191000FFF7EEFE09E02389A28861882846FFF7D9
:10192000A6FEE1882846FFF795FE70BD2DE9F0413F
:1019300005460C4600260127608808B9022600E00B
:101940000026A088012801D1022700E00127208875
:10195000A0B92389A28861882846FFF766FFE1883D
:101960002846FFF759FF23893A4631462846FFF7B4
:1019700012FFE1882846FFF701FF13E02389A288C0
:1019800061882846FFF707FFE1882846FFF7F6FE43
:1019900023893A4631462846FFF747FFE188284623
:1019A000FFF73AFFBDE8F0810A884B881A438B881D
:1019B0001A43CB881A430B891A434B891A438B89E4
:1019C0001A43A0F8442070474FF6FF718180002130
:1019D0000180C180418001727047002101804180F7
:1019E0008180C180018141818181C1817047002155
:1019F00001804180012181800021C18001817047E7
:101A00000021018041808180C180018141818181EB
:101A100070470000002C01400034014000040040E9
:101A200000080040000C004021B1028842F0010291
:101A3000028004E002884FF6FE731A40028070476D
:101A400031B1B0F8442042F40042A0F8442005E04F
:101A5000B0F84420C2F30E02A0F8442070471AB137
:101A600083890B43838102E083898B4383817047A1
:101A70008182704741EA0203A0F8483070471AB1EA
:101A800083890B43838102E083898B438381704781
:101A900001894FF6F8721140018170470A46002112
:101AA00001894FF68F73194011430181704730B59A
:101AB00004460D4629462046FFF7F0FF208940F0F6
:101AC0000700208130BD2DE9F04104460D46164641
:101AD0001F46602D06D13B46012231462046FFF7C6
:101AE0005AFE05E03B46012231462046FFF79DFEA7
:101AF00029462046FFF7D2FF208940F007002081C9
:101B0000BDE8F08130B50C4600210189C9B24FF61D
:101B1000FF7505EA0325154325432943018130BD9F
:101B20002DE9F04105460E461746984600244346E7
:101B30003A4631462846FFF7E5FF2C894FF6F87004
:101B4000044044F007044FF68F70044044F07004E2
:101B50002C81BDE8F081F0B504460D4616461F46BF
:101B60003B46324629462046FFF7CCFF208940F409
:101B700080402081F0BD0185828270470A460021A5
:101B800001884FF68F731940114301807047F0B5FB
:101B90000C4615461E460021002200230189028BB7
:101BA000038C4FF6F877394021434FF6FC473A4013
:101BB00040F201173A434FF6DD773B404FF6FF778F
:101BC00007EA06172F433B43018102830384F0BDDC
:101BD0000A460021018B4FF68F7319401143018390
:101BE00070470A460021018B48F6FF7319404FF6F3
:101BF000FF7303EA02231943018370470A46002159
:101C0000818B4FF68F7319401143818370470A46C9
:101C10000021818B48F6FF7319404FF6FF7303EAEA
:101C2000022319438183704721B1028842F0800268
:101C3000028004E002884FF67F731A4002807047EA
:101C400021B1828842F00402828004E082884FF64B
:101C5000FB731A408280704721B1828842F00802EB
:101C6000828004E082884FF6F7731A4082807047C2
:101C700021B1828842F00102828004E082884FF61E
:101C8000FE731A40828070470A460021018B4FF68E
:101C9000F77319401143018370470A460021018BF5
:101CA0004FF2FF7319404FF6FF7303EA0223194303
:101CB000018370470A460021818B4FF6F773194064
:101CC0001143818370470A460021818B4FF2FF73D5
:101CD00019404FF6FF7303EA0223194381837047CB
:101CE0000A460021018B4FF6FB7319401143018313
:101CF00070470A460021018B4FF6FF3319404FF61B
:101D0000FF7303EA02231943018370470A46002147
:101D1000818B4FF6FB7319401143818370470A464C
:101D20000021818B4FF6FF3319404FF6FF7303EA12
:101D300002231943818370470A460021018B4FF625
:101D40007F7319401143018370470A460021018BBC
:101D5000C1F30E014FF6FF7303EA02231943018317
:101D600070470A460021818B4FF67F73194011435B
:101D7000818370470A460021818BC1F30E014FF623
:101D8000FF7303EA02231943818370470A46002147
:101D9000018C4FF6FD7319401143018470470A46C8
:101DA0000021018C4FF6F7731940114301847047ED
:101DB0000A460021018C4FF6DF7319404FF6FF737E
:101DC00003EA02131943018470470A460021018C7B
:101DD0004FF67F7319404FF6FF7303EA021319435E
:101DE000018470470A460021018C4FF6FF531940C9
:101DF0004FF6FF7303EA02231943018470470A4632
:101E00000021018C4FF2FF7319404FF6FF7303EA74
:101E100002231943018470470A460021018C4DF6C4
:101E2000FF7319404FF6FF7303EA0233194301842D
:101E3000704730B5002301248C40A3B2048C9C432E
:101E40000484048C02FA01F5ADB22C43048430BD45
:101E500030B5002304248C40A3B2048C9C4304843A
:101E6000048C02FA01F5ADB22C43048430BD70B588
:101E70000346002000241846183001258D40ACB2DE
:101E80001D8CA5431D8409B1082909D100EB61000F
:101E9000056825F0700505600568154305600EE0CE
:101EA0000D1FC5F34E052844056825F4E04505607F
:101EB00005684FF6FF7606EA02263543056070BDD9
:101EC00021B1028842F00202028004E002884FF64B
:101ED000FD731A400280704721B1028842F004026B
:101EE000028004E002884FF6FB731A4002807047BC
:101EF00021B1828842F08002828004E082884FF61D
:101F00007F731A408280704702884FF6F7731A4039
:101F1000028002880A430280704782884FF68F73DE
:101F20001A40828082880A438280704702894FF675
:101F3000F8731A40028102890A43028170470289BC
:101F40004FF67F731A40028102890A43028170476B
:101F5000818470478185704781867047018770470B
:101F600081877047A0F84010704702884FF6FF4302
:101F70001A40028002880A43028070470146888E18
:101F800070470146088F70470146888F70470146A9
:101F9000B1F8400070470146888C70470146088DB3
:101FA000704702460020138A0B400BB1012000E06D
:101FB00000207047CA430282704730B502460020B5
:101FC00000230024158A05EA0103958905EA010426
:101FD00013B10CB1012000E0002030BDCA430282E1
:101FE0007047000010B50446FB48844209D1012126
:101FF0008803FFF79FF800214FF48040FFF79AF81D
:1020000032E0F648844209D101214804FFF79FF8E5
:1020100000214FF40030FFF79AF825E0F0488442A1
:1020200009D101218804FFF792F800214FF48020A4
:10203000FFF78DF818E0EB48844209D10121C8046C
:10204000FFF785F800214FF40020FFF780F80BE040
:10205000E548844208D101210805FFF778F80021FE
:102060004FF48010FFF773F810BD2DE9F04786B0EC
:1020700005460E460024A24600BFA1460027B089AF
:1020800000B100BF2F462C8A4CF6FF700440F08848
:1020900004432C82AC894EF6F3100440B088318999
:1020A0000843718908430443AC81AC8A4FF6FF4072
:1020B0000440B0890443AC8201A8FEF7B4FFC648CF
:1020C000874202D1DDF810A001E0DDF80CA0A8895C
:1020D00000F4004040B10AEBCA0000EB0A1031687E
:1020E0004900B0FBF1F807E00AEBCA0000EB0A1068
:1020F00031688900B0FBF1F86420B8FBF0F004010E
:102100002009642101FB1089A88900F4004040B136
:10211000322000EBC900B0FBF1F000F007000443EF
:1021200008E0322000EB09106421B0FBF1F000F070
:102130000F0004432C8106B0BDE8F0874FF4165120
:10214000016000218180C18001810C214181002139
:102150008181704710B502460020108A4FF2FF03BC
:1021600018400B884C8823438C882343CC88234316
:102170001843108210BD0021018041808180C18000
:10218000704721B1828942F40052828104E0828941
:102190004DF6FF731A4082817047F0B50346002464
:1021A00000260025002040F66A17B94200D100BF82
:1021B0001846C1F3421401F01F06012707FA06F57D
:1021C000012C01D10C3004E0022C01D1103000E0D0
:1021D00014301AB107682F43076002E00768AF4365
:1021E0000760F0BD1AB1838A0B43838202E0838AC1
:1021F0008B4383827047028A4FF6F0731A40028243
:10220000028A0A430282704782894FF2FF731A40A2
:10221000828182890A438281704721B1828942F09A
:102220000202828104E082894FF6FD731A408281A6
:102230007047028A4FF6DF731A400282028A0A430D
:102240000282704721B1028A42F48042028204E095
:10225000028A4BF6FF731A4002827047C1F30802EC
:102260008280704701468888C0F3080070478189E2
:1022700041F0010181817047028BD2B20283028B4F
:1022800042EA012202837047028B02F47F420283FA
:10229000028B0A430283704721B1828A42F02002F6
:1022A000828204E0828A4FF6DF731A40828270478E
:1022B00021B1828A42F01002828204E0828A4FF6C3
:1022C000EF731A408282704721B1828A42F008027D
:1022D000828204E0828A4FF6F7731A408282704746
:1022E00021B1828942F40042828103E08289C2F3F3
:1022F0000E028281704721B1828A42F4006282829A
:1023000004E0828A4FF2FF731A4082827047828A09
:102310004FF6FB731A408282828A0A438282704798
:1023200021B1828A42F00202828204E0828A4FF660
:10233000FD731A408282704702460020B1F5007F8B
:1023400000D100BF13880B400BB1012000E000203A
:10235000704701F40072B2F5007F00D100BFCA439C
:102360000280704770B5024600240023002500203B
:1023700040F66A16B14200D100BFC1F3421501F028
:102380001F03012606FA03F3012D02D1968933407B
:1023900006E0022D02D1168A334001E0968A3340CE
:1023A0000C12012606FA04F41688344013B10CB15D
:1023B000012000E0002070BD10B50022002340F68F
:1023C0006A14A14200D100BF0A1201249440A3B2B2
:1023D000DC43048010BD0000003801400044004090
:1023E00000480040004C00400050004000BF01F099
:1023F0007BFC01F007FC00F0FCFB00F0EAFA02F0C5
:1024000034FC00F0B1FE01F028F816E001F070FB9A
:1024100000F054FF01F027F8554800F031FA10B9E8
:10242000534800F0BFFD5348007830B100205149B7
:10243000087000F057FA01F0EAF8E7E708B51E2047
:102440000346022211460090012000F08FFB4FF45A
:102450007A7001F086FC1E2003460022114600908F
:10246000012000F083FB4FF47A7001F07AFC1E200B
:102470000346012211460090104600F077FB4FF40E
:102480007A7001F06EFC1E200346002201210090AC
:10249000084600F06BFB4FF47A7001F062FC1E20DE
:1024A0000346012200210090104600F05FFB4FF42C
:1024B0007A7001F056FC1E20034602220021009093
:1024C000012000F053FB4FF47A7001F04AFC1E200B
:1024D0000346002202210090012000F047FB4FF448
:1024E0007A7001F03EFC1E20034600221146009047
:1024F000012000F03BFB4FF47A7001F032FC4FF406
:102500007A7001F02EFC4FF47A7001F02AFC0A2058
:102510000346002211460090012000F027FB4FF4F3
:102520007A7001F01EFC4FF47A7001F01AFC4FF43F
:102530007A7001F016FC40200346002211460090FC
:10254000012000F013FB4FF47A7001F00AFC4FF405
:102550007A7001F006FC4FF47A7001F002FC1E2044
:102560000346022211460090322000F0FFFA08BD17
:10257000C401002070010020704702E00AA004F0AE
:1025800097FCFBE700BFFEE700BFFEE700BFFEE7EA
:10259000704770477047704710B502F01AFB10BDC6
:1025A00010B501F090FF10BD0D0ABDF8C8EBD3B215
:1025B000BCFEB4EDCEF3D6D0B6CF0D0A00000000BD
:1025C0002DE9F05F82464FF0000B504603F0FBFF11
:1025D0008046724A724B03F007FF06460022714B99
:1025E00003F05BFE044604F03FF800F0FF0B584692
:1025F000BDE8F09F70B5044600252046FFF7E0FFD8
:1026000005462A4644F62061052002F0BBF870BD5D
:1026100070B5044600252046FFF7D2FF05462A463E
:1026200044F62061062002F0ADF870BD70B5044696
:1026300000252046FFF7C4FF05462A4644F62061E0
:10264000072002F09FF870BD70B5044600252046B3
:10265000FFF7B6FF05462A4644F62061082002F03F
:1026600091F870BD70B5044600252046FFF7A8FF1D
:1026700005462A4644F62061092002F083F870BD21
:1026800070B5044600252046FFF79AFF05462A4606
:1026900044F620610A2002F075F870BD70B504465A
:1026A00000252046FFF78CFF05462A4644F62061A8
:1026B0000B2002F067F870BD70B504460025204677
:1026C000FFF77EFF05462A4644F620610C2002F003
:1026D00059F870BD70B504460D46002D01DBB42DD0
:1026E00001DDFF2070BD1CB92846FFF783FF28E0FD
:1026F000012C03D12846FFF78BFF22E0022C03D1E7
:102700002846FFF793FF1CE0032C03D12846FFF770
:102710009BFF16E0042C03D12846FFF7A3FF10E02F
:10272000052C03D12846FFF7ABFF0AE0062C03D1A6
:102730002846FFF7B3FF04E0072C02D12846FFF735
:10274000BBFF0020CEE710B5472144F6206001F022
:1027500098FF4B2244F62061052002F013F84B222B
:1027600044F62061062002F00DF84B2244F6206169
:10277000072002F007F84B2244F62061082002F0FF
:1027800001F8472144F6206002F037F84B2244F666
:102790002061092002F0A2F810BD0000721CC77170
:1027A0001CC7E13F0000394010B504462CB9012296
:1027B0001103124802F0E6F905E000224FF48051BF
:1027C0000E4802F0DFF910BD08B501210420FEF724
:1027D00097FC4FF48050ADF8000010208DF80300F6
:1027E00003208DF8020069460448FEF7CDF9002267
:1027F0004FF48051014802F0C5F908BD00080140BE
:10280000704710B504462CB90122D1021B4802F0D2
:10281000B9F905E000224FF40061184802F0B2F95E
:1028200010BD70B505460C4615B1012D08D103E069
:102830002046FFF7E6FF04E02046FFF7E1FF00E057
:1028400000BF00BF70BD08B501210420FEF758FC91
:102850004FF40060ADF8000010208DF80300032055
:102860008DF8020069460548FEF78EF900224FF404
:102870000061024802F086F908BD0000000801402E
:1028800070B5044600251B222146002001F0BAFD48
:1028900005460DB9012070BD0020FCE730B50246A9
:1028A0000B46002111E012F8015B81EA05210024AA
:1028B00009E001F4004020B141F2210080EA410129
:1028C00000E04900641C082CF3DB581E031EEADA02
:1028D00088B230BD10B504461B222146002001F00D
:1028E00045FD10BD10B5FF203C490870022048701E
:1028F000402088700020C87010200871002006E079
:1029000037490A5C354B411D5A54411CC8B2042852
:10291000F6DB002008E03249091F0A5C2F4B00F16A
:1029200009015A54411CC8B20428F4DB002007E016
:102930002C490A5C294B00F10D015A54411CC8B2C4
:102940000428F5DB002008E02649091F0A5C234B18
:1029500000F111015A54411CC8B20428F4DB0020D4
:1029600006E003221D4B00F115015A54411CC8B268
:102970000428F6DB002006E00422184B00F11901C0
:102980005A54411CC8B20428F6DB002008E000F1CC
:102990000801154A525C114B15315A54411CC8B2FA
:1029A0000428F4DB002007E010490A5C0B4B00F11F
:1029B00021015A54411CC8B22428F5DB074981F88B
:1029C0004540200A81F846004721044801F068FD8F
:1029D00010BD10B501F010FB10BD0000DF0100209C
:1029E000340100204C020020440400201404002084
:1029F0002DE9F14F82B000200190029803F0F4FD20
:102A0000804600229A4B03F0EFFC06460022994BC9
:102A100003F05CFD04460022974B03F0E5FC824680
:102A200003F022FE80B201900198BDE8FE8F70B5E0
:102A300004460D46002691480078A04204D19048F3
:102A40000078A84200D170BD8C4804708C48057095
:102A50002846FFF7CDFF064634B1012C0BD0022CDF
:102A600010D0032C1CD114E0324644F62061012022
:102A700001F0C7FD15E0324644F62061022001F066
:102A8000C0FD0EE0324644F62061032001F0B9FD9E
:102A900007E0324644F62061042001F0B2FD00E078
:102AA00000BF00BF00BFCEE770B505460C467548B5
:102AB0000078A84204D174480078A04200D170BDCB
:102AC000704805707048047035B1012D12D0022D88
:102AD0001ED0032D36D128E02CB9012251026B48BB
:102AE00002F050F805E000224FF40071674802F050
:102AF00049F828E02CB901221102644802F042F89A
:102B000005E000224FF48071604802F03BF81AE0C3
:102B10002CB9012280215D4802F034F804E0002243
:102B200080215A4802F02EF80DE02CB901224021F4
:102B3000564802F027F804E000224021534802F0F2
:102B400021F800E000BF00BF00BFB8E70122504BF2
:102B50001A7010B1012806D102E04E4A117003E04C
:102B60004D4A117000E000BF00BF70472DE9F047EB
:102B700005460E4614461F46DDF8208039460020E3
:102B8000FFF7E4FF41460120FFF7E0FF40480078EF
:102B900008B91E2001E03F48007881463C48007893
:102BA00008B91E2001E03C4800788246022E01DB75
:102BB0004FF00009022C01DB4FF0000ABDB139468D
:102BC0000020FFF7C3FF41460120FFF7BFFF31465A
:102BD0000020FFF769FF49460020FFF728FF214644
:102BE0000120FFF761FF51460120FFF720FFBDE8FC
:102BF000F08708B501211020FEF782FA4FF47070BB
:102C0000ADF8000010208DF8030003208DF80200BD
:102C100069461E48FDF7B8FF012240211B4801F01C
:102C2000B1FF01228021194801F0ACFF01221102FD
:102C3000164801F0A7FF01225102144801F0A2FF3B
:102C4000472144F6206001F067FC002244F6206131
:102C5000012001F0D6FC002244F62061022001F0A0
:102C6000D0FC002244F62061032001F0CAFC08BD1C
:102C70000000F03F0000594000408F402D00002030
:102C80002E0000202B0000202C000020001001400E
:102C90002A000020280000202900002001468A7810
:102CA000CB7842EA0320704701464878012800D1DA
:102CB00070470020FCE72DE9F84F04460025002668
:102CC00001274FF00108A946AA4614B90020BDE823
:102CD000F88F2046FFF7E2FF0546042D08D10126B4
:102CE000677994F8068094F8079094F808A000E0BB
:102CF00000264B46424639463046CDF800A0FFF745
:102D000035FF0120E3E770B50446002500260CB925
:102D1000002070BD2046FFF7C1FF0546012D01D1FF
:102D2000667900E05A262079052804D13146002032
:102D3000FFF7D0FC36E02079062804D13146012087
:102D4000FFF7C8FC2EE02079072804D13146022085
:102D5000FFF7C0FC26E02079082804D13146032083
:102D6000FFF7B8FC1EE02079092804D13146042081
:102D7000FFF7B0FC16E020790A2804D1314605207F
:102D8000FFF7A8FC0EE020790B2804D1314606207D
:102D9000FFF7A0FC06E020790C2803D1314607207C
:102DA000FFF798FC0120B4E770B504460025002623
:102DB0000CB9002070BD2046FFF770FF0646012EBB
:102DC00001D165794625642D01DD0020F2E72079E7
:102DD0000D2804D129460020FFF7B8FE06E020792F
:102DE0000E2803D129460120FFF7B0FE0120E1E7BC
:102DF00070B50446002500260CB9002070BD2046A1
:102E0000FFF74CFF0646012E01D1657901E0002055
:102E1000F4E765B920790F2804D100210846FFF7AF
:102E200000FD12E001210020FFF7FBFC0DE0012D69
:102E30000BD120790F2804D100210120FFF7F1FCEC
:102E400003E001210846FFF7ECFC0120D6E710B5AE
:102E500004460CB9002010BD2079112803D10020B0
:102E6000FFF7A2FC02E00120FFF79EFC0120F2E741
:102E700030B502460B46002111E012F8015B81EAF1
:102E80000521002409E001F4004020B141F22100B5
:102E900080EA410100E04900641C082CF3DB581E65
:102EA000031EEADA88B230BDF0B58BB005460020CB
:102EB000089009900A901C2101A803F01DF9002632
:102EC000002715B900200BB0F0BD2846FFF7E6FE3D
:102ED000C7B2012F01D16C7901E00020F3E73CB9C2
:102EE00008A9002000F01AF904208DF8080026E057
:102EF000012C07D108A9022000F010F902208DF85A
:102F000008001CE0022C07D108A9012000F006F9F6
:102F100001208DF8080012E0032C07D108A9042035
:102F200000F0FCF803208DF8080008E0042C06D11E
:102F300008A9042000F0F2F800208DF80800FF2016
:102F40008DF8040002208DF80500BDF82200C1179D
:102F500000EB11610912A0EB0121C9B28DF8061036
:102F6000BDF82200C11700EB1161090A8DF80710A6
:102F700028798DF80800BDF8222009A90DF1090073
:102F800003F0A1F8192101A8FFF772FF0646F0B27D
:102F90008DF81D00300A8DF81E0001A8FFF79AFC7D
:102FA000012090E710B504462046FFF77DFE08B9E2
:102FB000002010BD2079142831D2DFE800F00A0B80
:102FC0000C0D0E12131415161718191D1E22232787
:102FD000282C00BF00BF00BF00BF2046FFF76BFEDC
:102FE0001FE000BF00BF00BF00BF00BF00BF00BFA9
:102FF0002046FFF788FE14E000BF2046FFF7D4FE0E
:103000000FE000BF2046FFF7F3FE0AE000BF2046B6
:10301000FFF71DFF05E02046FFF746FF01E0002017
:10302000C7E700BF0120C4E770B546245A252146F2
:103030000220FFF74FFB29460320FFF74BFB2946F1
:103040000420FFF747FB70BD2DE9F04104460D4613
:1030500000260022424B2046294603F037FA074655
:1030600003F0E3FA06463F49885D03F0BDFABDE888
:10307000F0812DE9F04781460024B9F10F0F02DD00
:103080000020BDE8F087484601F068FD0446204670
:1030900003F0AAFA0746FFF7D7FF054603F0C5FA83
:1030A0000446FF2C00D9FF24E0B2EAE770B50446DD
:1030B0000025002001F052FD064603F07FFA054688
:1030C00065600420207070BD002141600422027000
:1030D0007047704710B504460920FFF7CAFF2071FA
:1030E0000A20FFF7C6FF60710B20FFF7C2FFA07137
:1030F0000C20FFF7BEFFE0710420207010BD70B5FA
:10310000044600250026082001F028FD0546284633
:1031100003F054FA60600420207070BD70B504465E
:103120000D46052C15D2DFE804F0030B070F130042
:103130002846FFF7CFFF0DE02846FFF7C5FF09E05F
:103140002846FFF7C1FF05E02846FFF7D8FF01E05A
:1031500000E000BF00BF70BD10B501F005FC10BD60
:10316000000010402F00002010B55B4801F0DEFF8A
:103170005A4802F02FFC10BD5948007808B10120D0
:1031800070470020FCE75748007808B101207047DD
:103190000020FCE72DE9F0414F4B4FF4807252497B
:1031A0004E4802F093FD00204D4908704A48002225
:1031B0004E4BD0E91061304603F016F9044603F097
:1031C00053FA4B49086044480022484BD0E9126149
:1031D000304603F009F9044603F046FA44494860D2
:1031E0003D480022414BD0E91861304603F0FCF81D
:1031F000044603F039FA3E498860374800223B4BC9
:10320000D0E91661304603F0EFF8044603F02CFADB
:1032100037490861304890F8700008732E4890F8DC
:1032200074004873BDE8F0812DE9F0412A4B4FF45A
:1032300080723049294802F049FD00202949087070
:1032400025480022294BD0E91061304603F0CCF824
:10325000044603F009FA264908601F480022234B60
:10326000D0E91261304603F0BFF8044603F0FCF9E0
:103270001F494860184800221C4BD0E918613046AD
:1032800003F0B2F8044603F0EFF9194988601249D7
:10329000D1E916610022154B304603F0A5F804462B
:1032A00003F0E2F9124908610B4890F870000873C6
:1032B000094890F874004873BDE8F08110B5FFF735
:1032C0005BFF10B1FFF766FF04E0FFF75CFF08B19A
:1032D000FFF7AAFF10BD000060020020C803002015
:1032E0009201002091010020DC050020006AF840D6
:1032F00048020020DC06002000B589B00121022030
:10330000FDF70BFF01210820FDF7FAFE28208DF8BC
:1033100023000120ADF8200003208DF8220008A929
:10332000C448FDF731FC0220ADF8200028208DF8BC
:10333000230008A9BF48FDF727FC0020ADF81400C2
:103340004FF6FF70ADF818000020ADF81A00ADF888
:10335000160005A9B848FEF70BF80820ADF80400E0
:103360000020ADF80600ADF80C00ADF80A00012011
:10337000ADF8080001A9B048FEF78DFA0122092135
:10338000AD48FEF76CFB1D208DF8100001208DF874
:10339000130003208DF8110004A8FCF7DAFF0121C7
:1033A000A548FEF741FB09B000BD00B589B0012179
:1033B0000420FDF7B2FE01210820FDF7A1FE282020
:1033C0008DF823004020ADF8200003208DF8220066
:1033D00008A99848FDF7D8FB8020ADF820002820E8
:1033E0008DF8230008A99348FDF7CEFB0020ADF827
:1033F00014004FF6FF70ADF818000020ADF81A0069
:10340000ADF8160005A98D48FDF7B2FF0020ADF814
:103410000400ADF80600ADF80C00ADF80A0001207C
:10342000ADF8080001A98548FEF735FA012203210D
:103430008248FEF714FB1E208DF8100001208DF845
:10344000130002208DF8110004A8FCF782FF01216F
:103450007A48FEF7E9FA09B000BD10B5FFF7A5FFFD
:10346000FFF74AFF10BD7648006876494860764805
:1034700000680860704770B502217048FEF79DFD36
:10348000012859D171480078401C704908700846DD
:103490000078062850D1002008706D48007840F070
:1034A00080006B49087080216248FDF700FC694983
:1034B0000978884205D168480078401C6649087040
:1034C0000EE080215B48FDF7F2FB62490978C1F10B
:1034D0000101884204D160480078401E5E490870AE
:1034E0005D480078FF2808D15C480068401C5B49B3
:1034F00008600020584908700AE05748007838B939
:1035000056480068401E55490860FF20524908701F
:1035100051490978514A1268FF2303FB021003F056
:103520004DF805464E480168284602F046FE04461E
:1035300003F067F84249086003214048FEF74EFD5A
:1035400070BD70B508213C48FEF737FD012859D100
:1035500044480078401C4349087008460078062813
:1035600050D1002008704048007840F080003E496B
:10357000087002212F48FDF79AFB3C4909788842E0
:1035800005D13B480078401C394908700EE0022103
:103590002848FDF78CFB35490978C1F101018842C3
:1035A00004D133480078401E314908703048007813
:1035B000FF2808D12F480068401C2E4908600020D1
:1035C0002B4908700AE02A48007838B92948006871
:1035D000401E28490860FF202549087024490978C1
:1035E000244A1268FF2303FB021002F0E7FF05469E
:1035F00021480168284602F0E0FD044603F001F886
:103600001149086009210C48FEF7E8FC70BD47F23B
:1036100030500B4908600C490860A5200E4908701D
:1036200075200E490860A5201149087075201149C0
:1036300008607047000C0140000400400008004092
:1036400044010020300100205401002058010020D6
:103650003D0100203C0100203E01002040010020EF
:1036600038010020590100204D0100204C010020AC
:103670004E010020500100204801002010B501F04B
:10368000CFFB10BD2DE9F04105460C46002701F0A7
:10369000DEFB2646E11704EB1161091205EB41013F
:1036A000C8B201F086FC01F013FCE11704EB1161D4
:1036B0000912A4EB0121C8B201F07BFC01F008FC67
:1036C00001F0C5FB691CC8B201F073FC01F000FCFD
:1036D000002001F09CFC074601F0D9FB3846BDE80C
:1036E000F0812DE9F04106460C46174601F0AFFB8C
:1036F0002546E11704EB1161091206EB4101C8B23E
:1037000001F057FC01F0E4FBE11704EB1161091231
:10371000A4EB0121C8B201F04CFC01F0D9FB384602
:1037200001F047FC01F0D4FB01F0B1FB0A2000F0EE
:1037300018FBBDE8F0812DE9F04180460D461646A4
:103740001F4600240AE0E00026FA00F0C2B2281961
:1037500081B24046FFF7C5FF601CC4B2BC42F2DB39
:10376000BDE8F0812DE9F04180460F461446002661
:1037700000250AE036023819401B401E81B240463F
:10378000FFF780FF0644681CC5B2A542F2DB304655
:10379000BDE8F08110B5FF21A020FFF773FF0446BC
:1037A000552C01D1002010BD5522FF21A020FFF78C
:1037B00098FFFF21A020FFF765FF0446552C01D19B
:1037C0000020F0E70120EEE72DE9F04107460E4624
:1037D00014461D4609E03146721C96B23846FFF782
:1037E00051FF04F8010B681E85B2002DF3D1BDE82E
:1037F000F0812DE9F04107460D4614461E4607E0CC
:10380000227829463846FFF76CFF681C85B2641C95
:103810003000A6F101018EB2F2D1BDE8F08110B501
:1038200000226B21D020FFF75CFF07221921D02056
:10383000FFF757FF06221A21D020FFF752FF182268
:103840001B21D020FFF74DFF01221C21D020FFF7C4
:1038500048FF10BD10B53C21D020FFF713FFC84929
:1038600008703B21D020FFF70DFFC549487008467E
:103870000078497840EA012000B2C2490880084631
:10388000B0F90000A42190FBF1F000B2BD4908801E
:103890003E21D020FFF7F6FEB94988703D21D020A7
:1038A000FFF7F0FEB649C87008468078C97840EA4C
:1038B000012000B2B34948800846B0F90200A421B3
:1038C00090FBF1F000B2AF4948804021D020FFF7D3
:1038D000D9FEAB4908713F21D020FFF7D3FEA8499C
:1038E000487108460079497940EA012000B2A549AB
:1038F00088800846B0F90400A42190FBF1F000B2E2
:10390000A049888010BD2DE9F0414421D020FFF767
:10391000B9FE9B4908704321D020FFF7B3FE9849B8
:10392000487008460078497840EA012000B295497D
:10393000C880B1F9060002F046FE06464FF0663236
:10394000914B02F0C3FD044602F06FFE00B28D49B8
:10395000C8804621D020FFF795FE8949887045210F
:10396000D020FFF78FFE8649C87008468078C97856
:1039700040EA012000B283490881B1F9080002F051
:1039800022FE06464FF066327F4B02F09FFD044652
:1039900002F04BFE00B27B4908814821D020FFF79E
:1039A00071FE774908714721D020FFF76BFE7449FB
:1039B000487108460079497940EA012000B271490E
:1039C0004881B1F90A0002F0FEFD06464FF066326A
:1039D0006D4B02F07BFD044602F027FE00B2694900
:1039E0004881BDE8F08110B502223721D020FFF7D1
:1039F00078FE0A2000F0B5F901220A211820FFF70D
:103A000070FE0A2000F0ADF903211820FFF73AFEFE
:103A10005B49087004211820FFF734FE58494870AC
:103A200008460078497840EA012000B2554988816B
:103A300005211820FFF726FE51498870062118201D
:103A4000FFF720FE4E49C87008468078C97840EAE2
:103A5000012000B24B49C88107211820FFF712FE50
:103A60004749087108211820FFF70CFE44494871A6
:103A700008460079497940EA012000B241490882AC
:103A800010BD002200BF11E003780B70491C0388B1
:103A90001B0A0B70491C03681B0C0B70491C036844
:103AA0001B0E0B70491C001D531CDAB2092AEBDBFC
:103AB000704703B569460CBD10B50022002314E021
:103AC00000220EE000240C70491C0C70491C047884
:103AD0000C70401C491C04780C70401C491C541C80
:103AE000E2B2042AEEDB5C1CE3B2032BE8DB10BD80
:103AF0002DE9F041002409E0A11D244A505C02F0A8
:103B00005DFD234941F82400601CC4B2062CF3DBA0
:103B10001E4989791D4AD27901EB022002F045FD48
:103B200004461C4902F07BFB054618498979174A6F
:103B3000D27901EB022002F038FD0446154902F06B
:103B40006EFB064611498979104AD27901EB0220B1
:103B500002F02BFD04460F4902F061FB07460E49B7
:103B60002846FFF7A6FF0C49091D3046FFF7A1FFC5
:103B7000094908313846FFF79CFFBDE8F081000095
:103B80005A010020DC030020666630404A05002010
:103B9000380400200000C842440400207FB50546D8
:103BA0000C460121C802FDF7ABFAADF80850ADF89C
:103BB00004400120ADF80A000020ADF8060001A97C
:103BC0004248FDF7D5FB012211464048FDF747FF6B
:103BD00019208DF8000000208DF8010003208DF8D9
:103BE000020001208DF803006846FCF7B2FB0121BA
:103BF0003648FDF719FF7FBD10B54FF4A060FCF704
:103C0000A3FB10BD10B5FFF7F7FF40F60F612720AB
:103C1000FFF7C4FF10BD10B501212C48FEF7DEF9F7
:103C20002B480068401C2A49086008460068B0F527
:103C30007A7F01D3002008602548007800F0010059
:103C400010B9012023490870214800680521B0FB04
:103C5000F1F201FB120010B901201F4908701C4845
:103C600000680A21B0FBF1F201FB120010B901203B
:103C70001A490870164800683221B0FBF1F201FBC6
:103C8000120010B90120164908701148006864211B
:103C9000B0FBF1F201FB120010B9012011490870CC
:103CA00010BD0C4909780C4A127801EB42010B4A0D
:103CB000127801EB82010A4A127801EBC201094A2B
:103CC000127801EB0211C8B270470000002C0140CD
:103CD0006C010020700100207101002072010020A1
:103CE000730100207401002010B56FF00400FCF790
:103CF0007AFB2E4800682E49B0FBF1F02D49087080
:103D00000846007800EB4001C1EBC0104FF6FF7190
:103D100001EAC0002849088010BD0146254A1278F2
:103D20004A434FF0E0235A6100229A611A46126911
:103D300042F001021A6100BF4FF0E022106900F06A
:103D400001021AB100F48032002AF5D04FF0E022CF
:103D5000126922F001024FF0E0231A6100229A61F9
:103D600070470146144A12884A434FF0E0235A61D3
:103D700000229A611A46126942F001021A6100BFDC
:103D80004FF0E022106900F001021AB100F4803215
:103D9000002AF5D04FF0E022126922F001024FF024
:103DA000E0231A6100229A617047000000000020A1
:103DB00000127A00760100207801002010B586B04C
:103DC000044601210420FDF79BF901214804FDF779
:103DD000A4F90420ADF8140003208DF81600182073
:103DE0008DF8170005A9FD48FCF7CEFE0820ADF8B8
:103DF000140004208DF8170005A9F848FCF7C4FE4C
:103E000026208DF8000002208DF8010003208DF897
:103E1000020001208DF803006846FCF79AFA01942D
:103E20000020ADF80800ADF80A00ADF80C00ADF8C0
:103E300010000C20ADF80E0001A9E948FEF715F9B5
:103E4000012240F22551E648FEF7A7F90121E44896
:103E5000FEF797F906B010BD10B586B004460121F3
:103E60000820FDF74DF901218804FDF756F94FF4BC
:103E70008060ADF8140018208DF8170003208DF82D
:103E8000160005A9D748FCF77FFE4FF40060ADF897
:103E9000140004208DF8170005A9D248FCF774FE21
:103EA00001940020ADF80800ADF80A00ADF80C0050
:103EB000ADF810000C20ADF80E0001A9CA48FEF7BD
:103EC000D4F80121C848FEF75CF906B010BD10B562
:103ED00086B00446012144F20400FDF711F9C348FD
:103EE000FEF780F84FF40070ADF8140003208DF851
:103EF000160018208DF8170005A9B848FCF744FEF5
:103F00004FF48060ADF8140004208DF8170005A967
:103F1000B248FCF739FE25208DF8000003208DF80B
:103F200001008DF8020001208DF803006846FCF7BF
:103F300010FA01940020ADF80800ADF80A00ADF8C1
:103F40000C00ADF810000C20ADF80E0001A9A74838
:103F5000FEF78BF8012240F22551A448FEF71DF927
:103F60000121A248FEF70DF906B010BD00B58DB0D5
:103F700001210846FDF7B7F89D48FCF77BFC9B48FC
:103F8000001D02909B480390102004900A20059089
:103F900000200690802007900020089009900A9049
:103FA0004FF480500B9000200C9002A99048FCF731
:103FB00003FD4FF4C060FCF7C7F90E208DF8040034
:103FC00001208DF8050000208DF8060001208DF8F5
:103FD000070001A8FCF7BDF9012202218448FCF783
:103FE00022FD01218248FCF712FD012280217F4839
:103FF000FEF7F8F80DB000BD10B54FF4E130FFF753
:1040000066FF7D48FFF7DAFE4FF41640FFF724FF06
:10401000FFF7ACFF10BD10B540F225517348FEF715
:10402000A1F9002870D07148FEF71CF97349744A51
:104030001278885472480078312802DD00207049D7
:1040400008706F480078401C6D4908706D48007812
:1040500030B1012815D0022826D0032874D146E0BB
:1040600000206949087065480078FF2805D1654837
:104070000078401C6349087002E000206049087025
:1040800063E00020604908705C484078012805D151
:104090005C480078401C5B49087004E000205849E7
:1040A00008705849087050E000205749087054487B
:1040B000007804281AD15148C078544908704F48F4
:1040C0008078097840EA0120C01D514908700846EF
:1040D0000078312805DD00204949087049490870F9
:1040E00004E048480078401C464908702DE0002054
:1040F000454908704248007845490978884221D1ED
:104100000020444908700DE020E03C48414909780E
:10411000405C41493F4A127888543E480078401C30
:104120003C4908703B480078394909788842ECDB03
:104130000020334908703649087032490870012060
:104140003649087001E0FFE700BF00BF10BD10B5A1
:104150000D203349087040F225512148FEF702F93D
:1041600000283AD01E48FEF77DF82E492E4A1278D4
:1041700088542D480078312802DD00202A49087033
:1041800029480078401C28490870284800780728EA
:1041900076D2DFE800F0041555687C8FA10000207E
:1041A000234908701F480078FE2805D11F48007871
:1041B000401C1E49087002E000201B490870B7E04F
:1041C00000201B490870174840780A2832D1174848
:1041D0000078401C1549087031E0AAE00008014051
:1041E00000440040000C01400048004000380140FD
:1041F000440002405004002020A107008204002057
:104200007C0100207F01002081010020820100202C
:104210007E01002083010020B40400207A010020E8
:104220008901002018050020870100208A01002054
:104230008C0100200020AA490870AA49087077E084
:104240000020A9490870A9488078802805D1A54890
:104250000078401CA349087004E00020A0490870C1
:10426000A049087064E000209F4908709F48C0780A
:10427000812806D19B480078401C9A49087005E0C7
:1042800055E00020964908709649087050E00020DB
:104290009549087095480079012805D19148007822
:1042A000401C9049087004E000208D4908708D4939
:1042B00008703DE000208C4908708C48407928B98E
:1042C00088480078401C8749087004E00020844931
:1042D0000870844908702BE00020834908708048EA
:1042E000007883490978884220D1002081490870EC
:1042F0000CE07E487F490978405C7F497D4A12780E
:1043000088547C480078401C7A49087079480078C5
:10431000774909788842ECDB0020714908707449BC
:1043200008707049087001207449087000E000BFEF
:1043300000BF10BD30B502460B46002111E012F857
:10434000015B81EA0521002409E001F4004020B16D
:1043500041F2210080EA410100E04900641C082C80
:10436000F3DB581E031EEADA88B230BD30B50346CF
:104370000020012B11D100BF0CE00C5C604D2C80A3
:1043800000BF5F4C241F248804F04004002CF8D0A8
:10439000441CE0B29042F0DB12E0022B10D100206E
:1043A0000CE00C5C574D2C8000BF564C241F248819
:1043B00004F04004002CF8D0441CE0B29042F0DB42
:1043C00030BD70B504460D46E1B24D48001FFDF703
:1043D00045FF00BF40214A48001FFDF7ADFF002800
:1043E000F8D0204670BD10B5044600BF20214448D7
:1043F000001FFDF7A1FF0028F8D04148001FFDF77E
:1044000031FF10BD2DE9F04381460E4617460024CA
:104410000025A0463C480078A0B33C48C0783B4902
:10442000897840EA0120C01D85B2A91E3748FFF7F0
:1044300081FF1FFA80F8681E3449085CFF2801D10B
:10444000012000E0002000EA080068B1A81E2F4902
:10445000085CFF2801D1012000E0002000EA2820AC
:1044600010B10020BDE8F083002404E02748005D7F
:104470003055601CC4B2BC42F8DB002022490870F1
:104480000120EFE7FFE70020ECE70120204908705A
:10449000704700201E49087070471D48007870471B
:1044A00000B503460A461B48406C20F0010019493C
:1044B0004864084603658264406C40F0010048642B
:1044C000FFF7E3FF00BD10B54FF40050FCF7D9FA39
:1044D00028B1FFF7DEFF4FF40050FCF7C7FA10BD1C
:1044E000870100208A0100208C010020180500208F
:1044F000890100208E0100204A050020850100204E
:1045000004380140044400407A010020B404002033
:10451000840100200000024030B589B005460C46F9
:1045200001210846FCF7F9FD01210420FCF7E8FD14
:104530000F20ADF8200018208DF8230003208DF8FF
:10454000220008A9F748FCF71FFBADF81850ADF89A
:1045500014400120ADF81A000020ADF8160005A99E
:104560004FF08040FCF704FF7020ADF804000120FC
:10457000ADF806000020ADF80A00ADF80C0001A966
:104580004FF08040FCF731FF01A94FF08040FCF76D
:104590006EFF01A94FF08040FCF7B6FF01A94FF074
:1045A0008040FCF7FCFF01218807FDF749FA08214C
:1045B000C806FDF769FB0821C806FDF76EFB082158
:1045C000C806FDF777FB0821C806FDF77CFB012133
:1045D0008807FDF729FB64210807FDF7BDFC64216E
:1045E0000807FDF7BBFC64210807FDF7B9FC64214F
:1045F0000807FDF7B7FC01218807FDF715FA09B098
:1046000030BDFEB505460C461646A0B2ADF8040016
:104610004720ADF800000120ADF806000020ADF8FD
:10462000020069464FF08040FCF7A2FE4FF47A701A
:10463000B4FBF0F006FB104087B2012D06D0022D2E
:104640000AD0032D0ED0042D18D111E039464FF0B9
:104650008040FDF781FC12E039464FF08040FDF7C5
:104660007DFC0CE039464FF08040FDF779FC06E018
:1046700039464FF08040FDF775FC00E000BF00BFF9
:10468000FEBD30B589B005460C4601210220FCF77D
:1046900044FD01210820FCF733FD01210420FCF733
:1046A0002FFDC020ADF8200018208DF82300032036
:1046B0008DF8220008A99B48FCF766FA0320ADF8A4
:1046C000200018208DF8230003208DF8220008A96F
:1046D0009548FCF759FAADF81850ADF81440012090
:1046E000ADF81A000020ADF8160005A98F48FCF7B8
:1046F0003FFE7020ADF804000120ADF80600002058
:10470000ADF80A00ADF80C0001A98848FCF76DFE71
:1047100001A98648FCF7ABFE01A98448FCF7F4FE2A
:1047200001A98248FCF73BFF01218048FDF788F989
:1047300008217E48FDF7A8FA08217C48FDF7ADFA6C
:1047400008217A48FDF7B6FA08217848FDF7BBFA48
:1047500001217648FDF768FA64217448FDF7FCFBF7
:1047600064217248FDF7FAFB64217048FDF7F8FBFD
:1047700064216E48FDF7F6FB01216C48FDF754F902
:1047800009B030BDFEB505460C461646A0B2ADF8E0
:1047900004004720ADF800000120ADF8060000201D
:1047A000ADF8020069466148FCF7E2FD4FF47A700B
:1047B000B4FBF0F006FB104087B2052D06D0062DA5
:1047C00009D0072D0CD0082D14D10EE039465748DA
:1047D000FDF7C2FB0FE039465448FDF7BFFB0AE086
:1047E00039465248FDF7BCFB05E039464F48FDF716
:1047F000B9FB00E000BF00BFFEBD30B589B0054683
:104800000C4601210420FCF788FC01210820FCF75C
:1048100077FC4FF47070ADF8200018208DF823005D
:1048200003208DF8220008A93F48FCF7ADF9ADF848
:104830001850ADF814400120ADF81A000020ADF872
:10484000160005A93A48FCF793FD7020ADF8040066
:104850000120ADF806000020ADF80A00ADF80C000C
:1048600001A93348FCF7C1FD01A93148FCF7FFFD60
:1048700001A92F48FCF748FE01A92D48FCF78FFE3F
:1048800001212B48FDF7DCF808212948FDF7FCF948
:1048900008212748FDF701FA08212548FDF70AFA03
:1048A00008212348FDF70FFA01212148FDF7BCF943
:1048B00064211F48FDF750FB64211D48FDF74EFBA6
:1048C00064211B48FDF74CFB64211948FDF74AFBA6
:1048D00001211748FDF7A8F809B030BDFEB505461F
:1048E0000C461646A0B2ADF804004720ADF8000013
:1048F0000120ADF806000020ADF8020069460C4822
:10490000FCF736FD4FF47A70B4FBF0F006FB104074
:1049100087B2012D0ED0022D11D0032D14D0042DFD
:104920001CD116E000080140000C014000040040CA
:104930000008004039460B48FDF70EFB0FE03946F2
:104940000848FDF70BFB0AE039460648FDF708FB6F
:1049500005E039460348FDF705FB00E000BF00BF56
:10496000FEBD00000008004000B587B001214FF4F3
:104970000570FCF7C5FB4FF40040FCF725FB302029
:10498000ADF8040000208DF8070001A97648FCF777
:10499000FBF83F20ADF8040000208DF8070001A9C6
:1049A0007248FCF7F1F87248FBF73CFD00200290DA
:1049B0008DF80C008DF80D004FF46020049000205D
:1049C000059001208DF8180002A96948FBF751FDF8
:1049D00001216748FBF779FD6548FBF798FD00BFAB
:1049E0006348FBF799FD0028FAD16148FBF79EFD6B
:1049F00000BF5F48FBF79FFD0028FAD107B000BD5C
:104A000010B504460723012221465948FBF7C9FD8A
:104A100001215748FBF799FD00BF02215448FBF7DD
:104A200005FF0028F9D05248FBF722FE10BD10B553
:104A300000210022002000BF16E0002209E000EB68
:104A400080034C4C04EB430333F812301944531CDD
:104A5000DAB2052AF3DB0523B1FBF3F1464C24F867
:104A600010100021431CD8B20828E6DB10BD10B599
:104A700042480078082802DB0020404908703F487F
:104A80000078082859D2DFE800F0040D17212B35F3
:104A90003F490420FFF7B4FF3649394A127821F81C
:104AA00012004BE00520FFF7ABFF32490A31344AD0
:104AB000127821F8120041E00A20FFF7A1FF2D49EA
:104AC00014312F4A127821F8120037E00B20FFF73B
:104AD00097FF28491E312A4A127821F812002DE04A
:104AE0000C20FFF78DFF23492831254A127821F841
:104AF000120023E00D20FFF783FF1E493231204AC8
:104B0000127821F8120019E00E20FFF779FF1949F9
:104B10003C311B4A127821F812000FE00F20FFF7FA
:104B20006FFF14494631164A127821F812001448D2
:104B30000078401C1249087000E000BF00BF104818
:104B40000078052804DBFFF772FF00200C4908708D
:104B50000A480078401C0949087010BD0146064803
:104B600030F81100704700000008014000100140BB
:104B7000002401407C050020CC0500208F0100208E
:104B80009001002070B505460E461446012C04D154
:104B900031462846FCF7A5F804E01CB93146284602
:104BA000FCF7A1F870BD000008B54FF4C060FBF73A
:104BB000CBFB0D208DF8000001208DF801000020B6
:104BC0008DF8020001208DF803006846FBF7C1FB59
:104BD00008BD10B54FF48060FBF753FF30B10120E2
:104BE0008A4908708002FBF741FF0AE04FF4007029
:104BF000FBF747FF28B10120854908704002FBF709
:104C000035FF10BD00B58BB001210846FCF76BFAEB
:104C10008048009080480190002002904FF400707E
:104C200003900020049080200590002006900790BB
:104C300020200890C001099000200A90694677481A
:104C4000FBF7BAFEFFF7B0FF012206217348FBF71E
:104C5000EAFE01217148FBF7DAFE012240216D488E
:104C6000001FFDF7BFFA0BB000BD10B5FFF7CAFF7C
:104C700010BD70477047024602F5FA6101F003006B
:104C800080B94FF4C87091FBF0F300FB131028B10A
:104C9000642091FBF0F300FB131008B10120704772
:104CA0000020FCE70020FAE72DE9FF4F81B08046A5
:104CB0008946164616B905B0BDE8F08F0C2E00DD0A
:104CC000F9E7D8F800A0D8F80440D8F80850D8F888
:104CD0000C70D8F810B0D8F8140000900498002890
:104CE00044D0B819182801D2374480E0B819A0F18F
:104CF0001807012C09D0032C07D0052C05D0072C50
:104D000003D0082C01D00A2C06D11F2D01D26D1C16
:104D10006DE00125641C6AE0042C05D0062C03D04C
:104D2000092C01D00B2C06D11E2D01D26D1C5EE08A
:104D30000125641C5BE0022C0DD11D2D06D01C2D1D
:104D400007D10AF0FF00FFF796FF10B90125641C98
:104D50004DE06D1C4BE00C2C49D11F2D01D26D1C78
:104D600045E0012501240AF1010A40E0B74201D3E0
:104D7000BF1B3CE007F11800871B022C09D0042C54
:104D800007D0062C05D0082C03D0092C01D00B2C01
:104D900006D1012D01D96D1E29E01F25641E26E0D4
:104DA000052C05D0072C03D00A2C01D00C2C06D1E1
:104DB000012D01D96D1E1AE01E25641E17E0032C7B
:104DC0000BD1012D07D10AF0FF00FFF754FF10B9F6
:104DD0001C25641E0BE06D1E09E0012C07D1012D7E
:104DE00001D96D1E03E01F250C24AAF1010AC9F8A0
:104DF00000A0C9F80440C9F80850C9F80C70C9F8F7
:104E000010B00098C9F8140000BF54E792010020C8
:104E10009101002004480040DC05002030000240E1
:104E200008B501211020FCF76BF93020ADF8000027
:104E300010208DF8030003208DF8020069468D488C
:104E4000FBF7A2FE30218B48FBF74BFF08BD10B5E6
:104E50008848006820F470008649086008460068A9
:104E600040F4401008600120834908608349C1F87C
:104E700090010420FEF751FF00207F4908600420C4
:104E8000FEF74BFF00207D49C1F8900110BD10B521
:104E90007848006820F47000764908600846006889
:104EA00040F44010086000207349091F08607349EE
:104EB000C1F894010420FEF730FF01206E49091F5C
:104EC00008606E49C1F894010420FEF726FF10BD6A
:104ED00010B500246748006820F470006549086038
:104EE0000846006840F4000008600120624908603C
:104EF000FEF713FF01206149C1F89001FEF70DFF95
:104F000007E0601CC4B2FA2C03DDFFF7C0FF0120EC
:104F100010BD5948803800680028F2D15649091F51
:104F2000086000BFF4E710B500205349091F08606E
:104F30005048006820F470004E4908600846006838
:104F400040F44010086000204C49C1F89401022050
:104F5000FEF7E3FE01204849091F08600220FEF722
:104F6000DCFE00204549C1F8900110BD10B50020BD
:104F70004149091F08603F48006820F470003D491E
:104F800008600846006840F44010086001203B4972
:104F9000C1F894010220FEF7C0FE01203649091F26
:104FA00008600220FEF7B9FE00203449C1F89001E4
:104FB00010BD70B504462F48006820F470002D49DC
:104FC00008600846006840F44010086000202A4944
:104FD000091F0860002517E0E009274908606006FE
:104FE000040E0220FEF799FE01202449C1F8900129
:104FF0000220FEF792FE00201F49091F08600220D0
:10500000FEF78BFE681CC5B2082DE5DB70BD70B5E0
:10501000054600241748006820F470001549086010
:105020000846006840F400000860002617E00020F1
:105030001149091F08600220FEF76FFE01200F4989
:10504000C1F890016006040E0B488038006808B172
:10505000601CC4B20120FEF760FE701CC6B2082EB0
:10506000E5DB15B9FFF782FF01E0FFF75CFF2046A3
:1050700070BD000000100140940122420000224255
:10508000294870470FB430B5ADF2044DFFF7F8FF73
:105090000568ADB10DF21440CDF8000440F2FF31C7
:1050A0006846DDF80034DDF8102401F025FF0446E1
:1050B0000020CDF80004002C02DD21466846A847F8
:1050C0000DF2044D30BC5DF814FB70B506460C467D
:1050D000FFF7D6FF05681DB114B121463046A84739
:1050E00070BD0FB430B5ADF2044DFFF7C9FF456890
:1050F000ADB10DF21440CDF8000440F2FF31684626
:10510000DDF80034DDF8102401F0F6FE044600203E
:10511000CDF80004002C02DD21466846A8470DF2B8
:10512000044D30BC5DF814FB9401002010B504461A
:105130004FF4B471204600F0DFFF201D00F026FE82
:10514000002020620120606210BD0000FEB506460E
:105150000D4614460027062D06D0082D16D0092D21
:1051600015D00A2D28D113E004F11400011F0B1FE4
:10517000FEA2CDE900102946304600F086FE032845
:1051800001D1012000E0002007461AE000BF00BF67
:1051900004F11800011F0A1F131FCDE9002102901E
:1051A000F5A22946304600F070FE042801D1012006
:1051B00000E00020074604E0F3A0FFF792FF00277D
:1051C00000BF00BF0FB10020FEBD4FF0FF30FBE776
:1051D00070B505460C46052C01DA002070BDF34879
:1051E00005220168284600F0A3FF08B90120F5E771
:1051F000EE4805224168284600F09AFF08B90220CF
:10520000ECE7EA4805228168284600F091FF08B9DA
:105210000420E3E7E5480522C168284600F088FF3E
:1052200008B90820DAE7E14805220169284600F0BC
:105230007FFF08B91020D1E70020CFE72DE9F04724
:1052400004460F46154604EB07080026B146701EBB
:10525000286029E02078242802D10EB1002425E01E
:1052600020782A281AD1601D404516D8E0780D28EC
:1052700013D120790A2810D110220221601C00F0DD
:105280009DFD2860601DA8EB00003E1A2868484577
:1052900003D04FF0FF302860002407E016B12078DB
:1052A00080EA0909641C761C4445D3D300BF2868F2
:1052B000002801DA04B100263046BDE8F087F0B5D9
:1052C000CDB005460E4614468021204600F014FF5E
:1052D00031462846FFF7F9FE04F1780004F1700129
:1052E00004F1680204F16003CDE90932CDE90B1045
:1052F00020382039203A203BCDE90532CDE907108E
:105300001C38011F183A183BCDE90132CDE90310D2
:105310001C380DABA6A231460090284600F0B5FD22
:105320000E2805D0AFA0FFF7DCFE00204DB0F0BD89
:105330000DA800F0ECFE0746224639460DA8FFF7FF
:1053400005FF20B1ACA0FFF7CCFE0020EEE7012066
:10535000ECE770B590B005460E4614465021204645
:1053600000F0CAFE31462846FFF7AFFE04F14801BF
:1053700004F1400204F13803181FCDE90D320F91FA
:105380000C90011F0A1F131F1038CDE909320B9131
:105390000890011F0A1F131F1038CDE9053207912D
:1053A0000490011F0838021F231DCDE90032CDE90A
:1053B0000201234696A23146284600F066FD1128D8
:1053C00005D0A2A0FFF78DFE002010B070BD012017
:1053D000FBE72DE9F04192B00746884614465C2170
:1053E000204600F089FE41463846FFF76EFE04F184
:1053F00058010A1F131F04F14800CDE90F32119123
:105400000E90011F0A1F131F1438CDE90B320D91A6
:105410000A90011F0A1F131F1438CDE907320991A2
:105420000690011F0A1F0C381C3BCDE90230CDE964
:1054300004210C38211D2346894ACDE9001041463C
:10544000384600F022FD06466068401E8500281D93
:10545000A168814202DAA068401B00E004200546F2
:10546000032000EB8505AE4201DB132E06DD7DA097
:10547000FFF737FE002012B0BDE8F0810120FAE707
:105480002DE9F041CEB006460F4614466021204675
:1054900000F032FE39463046FFF717FE04F159009E
:1054A000411E04F15002CDE90942CDE90B10201D47
:1054B000011D083A04F14003CDE90532CDE907109A
:1054C00034302831203A203BCDE90132CDE90310B8
:1054D0001C380EAB68A239460090304600F0D5FC6F
:1054E00005460D2D08D00E2D06D070A0FFF7F9FD52
:1054F00000204EB0BDE8F0810EA800F008FE804606
:10550000224641460EA8FFF721FE20B16CA0FFF70E
:10551000E8FD0020EDE720685A2802DA20686430B0
:1055200020606068401E60600120E2E770B588B0CE
:1055300005460E4614464021204600F0DDFD31466A
:105540002846FFF7C2FD04F1380004F1300104F1F0
:10555000280204F12003CDE90332CDE905102038FB
:105560002039203A2346CDE90021B5E025326425D3
:10557000326425326400000025326425326425320D
:10558000642E2564000000005061727365206F6610
:105590002074696D65206572726F722028666F7263
:1055A0006D6174206572726F72292100A001002064
:1055B0002447504747412C25732C25662C25432C26
:1055C00025662C25432C25642C25642C25662C254A
:1055D000662C25432C25662C25432C25662C25641A
:1055E0002A000000475047474120706172736520D0
:1055F0006572726F722100004750474741207469FD
:105600006D65207061727365206572726F72210022
:105610002447504753412C25432C25642C25642CCA
:1056200025642C25642C25642C25642C25642C25CC
:10563000642C25642C25642C25642C25642C25647D
:105640002C25662C25662C25662A000047504753DA
:1056500041207061727365206572726F7221000063
:105660005C7900084750475356207061727365207B
:105670006572726F72210000244750524D432C25F1
:10568000732C25432C25662C25432C25662C25437D
:105690002C25662C25662C2532642532642532643F
:1056A0002C25662C25432C25432A00004750524DBB
:1056B00043207061727365206572726F7221000001
:1056C0004750524D432074696D6520706172736557
:1056D000206572726F7221000290A6A231462846A0
:1056E00000F0D3FB082805D0AAA0FFF7FAFC0020A1
:1056F00008B070BD207A54280AD1207E4D2807D1E9
:1057000094F828004E2803D194F838004B2804D090
:10571000A5A0FFF7E6FC0020EAE70120E8E7C36860
:105720000B6103694B6143698B618369CB61C26B18
:105730000A62D0E91223C1E90C23D0E91423C1E99C
:10574000142390F828204E2A02D1D0E9082303E040
:10575000D0E9082383F00043C1E9102390F83820F2
:10576000452A02D1D0E90C2303E0D0E90C2383F0D1
:105770000043C1E912230A6842F001020A6070473F
:10578000F0B5002445684D62D0E90E56C1E90A56CD
:10579000D0E91056C1E90C56D0E91256C1E90E56AF
:1057A000002220E000231AE000F1080555F82250FD
:1057B000A5B100F1080555F8226003EB830701F15C
:1057C000780555F82750AE4208D1012603EB830730
:1057D00001F1780505EB87056E60641C5B1C4D6F5D
:1057E0009D42E1DC521C0C2ADCDB0C670D6845F0A5
:1057F00002050D60F0BDF0B5D0E90065B54204DCEE
:105800000C264568B6EB850F00DAF0BD4568012D22
:1058100001DA0125456086684E6745686D1EAC005B
:10582000251D8668AE4202DA85682D1B00E004253E
:105830002C4600223AE045686D1E02EB850302EB20
:10584000820600F10C0555F8266003EB830701F191
:10585000780545F8276002EB820600F10C0505EBA0
:10586000860503EB8307AE6801F1780505EB870534
:10587000AE6002EB820600F10C0505EB860503EB3A
:105880008307EE6801F1780505EB8705EE6002EB12
:10589000820600F10C0505EB860503EB83072E69F4
:1058A00001F1780505EB87052E61521CA242C2DB8F
:1058B0000D6845F004050D6000BFA6E72DE9F04135
:1058C00005460C46287F412809D1206A08B90220E4
:1058D0002062606A012809D10220606206E0287F08
:1058E000562803D100202062012060621C22294634
:1058F000201D00F0E8FB95F828004E2802D1D5E9DC
:10590000080103E0D5E9080181F00041C4E9100174
:1059100095F83800452802D1D5E90C0103E0D5E916
:105920000C0181F00041C4E91201284A284BD5E955
:105930001061304600F058FDC4E91601D5E91201A6
:10594000C4E91801206840F008002060BDE8F0813B
:10595000D0E90023C1E91823D0E90423C1E91A23BF
:10596000D0E90C23C1E916230A6842F010020A604C
:10597000704700002447505654472C25662C254379
:105980002C25662C25432C25662C25432C25662C9E
:1059900025432A0047505654472070617273652092
:1059A0006572726F72210000475056544720706133
:1059B000727365206572726F722028666F726D61F6
:1059C00074206572726F7229210000006F1283C00B
:1059D000CAA1FD3F70B504460026FFF751FB85685C
:1059E000FF2D01DC4FF480751421204600F084FB6C
:1059F000284601F02BFFA06018B9DEA0FFF771FB6D
:105A000001E0E5600126304670BD70B50546002610
:105A10002C6874B1606810B1606801F0EFFE266810
:105A2000A0682860286808B900206860204601F056
:105A3000E5FE304670BD10B5044602E02046FFF793
:105A4000E4FF20680028F9D1012010BD10B50446FC
:105A5000A06801F0D3FE2046FFF7EDFF1421204699
:105A600000F04AFB10BD2DE9F04104460E46002728
:105A700025685DB1686830602F68A868206020687C
:105A800008B900206060284601F0B8FE3846BDE83D
:105A9000F081014600200861012070472DE9F84F90
:105AA00005468A4690460026002428694044E96855
:105AB000884202DB2846FFF7ECFF2A69A9688818AC
:105AC0004246514600F0FFFA28694044286100BF71
:105AD0002A69911BAA6890196A46FFF7AFFB07462F
